:020000040800F2
:1000000000000420F5280008551C00085D1C0008AD
:10001000651C00086D1C0008751C0008000000002D
:100020000000000000000000000000007D1C00082F
:100030008B1C000800000000991C0008A71C000889
:1000400045290008452900084529000845290008D8
:1000500045290008452900084529000845290008C8
:1000600045290008452900084529000845290008B8
:1000700045290008452900084529000845290008A8
:100080004529000845290008452900084529000898
:100090004529000845290008452900084529000888
:1000A00045290008B51C0008452900084529000815
:1000B000C91C0008452900084529000845290008F1
:1000C0004529000845290008452900084529000858
:1000D0004529000845290008DD1C000845290008BD
:1000E0004529000845290008452900084529000838
:1000F0004529000845290008452900084529000828
:100100004529000845290008452900084529000817
:100110004529000845290008452900084529000807
:1001200045290008452900084529000845290008F7
:100130004529000800000000000000000000000049
:10014000000000000000000000000000F11C00089A
:1001500045290008452900084529000845290008C7
:1001600045290008452900084529000845290008B7
:1001700045290008051D00080000000000000000DF
:100180004529000845290008452900084529000897
:1001900045290008452900080000000045290008FD
:1001A00000000000000000000000000045290008D9
:1001B0004529000845290008000000000000000053
:1001C000000000000000000000000000000000002F
:1001D00000000000000000000000000045290008A9
:1001E00010B5054C237833B9044B13B10448AFF371
:1001F00000800123237010BDA80000200000000033
:10020000000A010808B5034B1BB103490348AFF3CB
:10021000008008BD00000000AC000020000A0108BA
:10022000034613F8012B002AFBD1181A0138704736
:1002300001F0FF01102A2BDB10F0070F08D010F897
:10024000013B013A8B422DD010F0070F42B3F6D19B
:10025000F0B441EA012141EA014122F007047FF0B4
:1002600000070023F0E80256083C85EA010586EA0B
:10027000010685FA47F5A3FA87F586FA47F6A5FA47
:1002800087F68EB9EED1F0BC01F0FF0102F0070253
:1002900032B110F8013B013A83EA010313B1F8D1FE
:1002A0000020704701387047002D06BF35460338DF
:1002B000073815F0010F07D1013015F4807F02BF18
:1002C000013015F4C03F0130F0BC0138704700BF69
:1002D00053B94AB9002908BF00281CBF4FF0FF31AD
:1002E0004FF0FF3000F088B9ADF1080C6DE904CE95
:1002F00000F006F8DDF804E0DDE9022304B0704701
:100300002DE9F047089D8E4604468846002B4AD1C9
:100310008A42174662D9B2FA82F64EB1C6F120037C
:1003200001FA06F820FA03F3B74043EA0808B4409C
:100330004FEA174E1FFA87FCB8FBFEF1230C0EFBA9
:10034000118843EA084301FB0CF29A4209D9FB18D1
:1003500001F1FF3080F0EA809A4240F2E7800239F2
:100360003B449A1AA3B2B2FBFEF00EFB102243EA02
:10037000024300FB0CFC9C4509D9FB1800F1FF323D
:1003800080F0D6809C4540F2D3803B44023840EA5E
:100390000140A3EB0C0300211DB1F3400022C5E98D
:1003A0000032BDE8F0878B4205D90DB1C5E90001E7
:1003B00000210846F5E7B3FA83F1002946D17345D9
:1003C00002D3824200F20581841A6EEB03020120FF
:1003D0009046002DE5D0C5E90048E2E7002A00F08C
:1003E0009080B2FA82F6002E40F0A4808A1A030CA4
:1003F0004FEA174E80B2BCB20121B2FBFEFC0EFBED
:100400001C2243EA024304FB0CF29A4207D9FB1870
:100410000CF1FF3802D29A4200F2E080C4469B1AE7
:10042000B3FBFEF20EFB123340EA034302FB04F47B
:100430009C4207D9FB1802F1FF3002D29C4200F225
:10044000CA8002461B1B42EA0C40A5E7C1F1200608
:100450008B4022FA06F71F430EFA01F420FA06F346
:100460002EFA06FE4FEA1749234300FA01F81FFA55
:1004700087FCBEFBF9F01C0C09FB10EE44EA0E44AD
:1004800000FB0CFEA64502FA01F209D93C1900F165
:10049000FF3A80F09C80A64540F2998002383C44A7
:1004A000A4EB0E041FFA83FEB4FBF9F309FB13441B
:1004B0004EEA044403FB0CFCA44508D93C1903F1A3
:1004C000FF3E80F08280A4457FD9023B3C4443EA52
:1004D0000040A4EB0C04A0FB02EC64457346E1462B
:1004E00062D35FD05DB1B8EB030264EB090404FA98
:1004F00006F622FA01F31E43CC40C5E90064002150
:100500004FE7B1FBF2FC010C41EA0E4180B240EA38
:1005100001423B4638463C46B846BE462026B1FB23
:10052000F7F1A2EB080241EA0C4166E7014618E741
:1005300010462CE7C6F120022EFA02F3B740B14074
:1005400020FA02F24FEA174E0A43B3FBFEF8BCB2A0
:100550000EFB1833110C41EA034108FB04F9B040CB
:1005600089454FEA104380B23ED9791808F1FF3C23
:1005700001D289451FD8A1EB0901B1FBFEF909FBA6
:1005800004F80EFB191192B242EA0142424529D207
:10059000BA1809F1FF31C4D24245C2D2A9F1020111
:1005A0003A44BEE7F0459DD2BEEB02036CEB070C6C
:1005B0000138E14696E7A7EB09094944A8F1020C86
:1005C000B1FBFEF909FB04F8DBE773467FE7504611
:1005D00066E70846FDE63B44023A33E7ACF1020C1D
:1005E0003B441CE749469CE7A1EB0901C446B1FB2B
:1005F000FEF909FB04F8C4E7704700BF80B584B07A
:1006000000AF3B4600221A605A609A60DA60214BC4
:10061000214A1A601F4B4FF480325A601D4B002252
:100620009A601C4B00221A611A4B00229A61194BE6
:10063000002283F82020174B0022DA62154B174A5C
:100640009A62144B0022DA60124B0122DA61114BDC
:10065000002283F830200F4B01225A610D4802F02E
:10066000C3F90346002B01D000F03CFF04233B609C
:1006700001237B600023BB603B461946054802F01E
:10068000F7F90346002B01D000F02CFF00BF103714
:10069000BD4680BDC4000020002001400100000FC5
:1006A00080B584B000AF3B4600221A605A609A6061
:1006B000DA60214B214A1A601F4B4FF480325A6096
:1006C0001D4B00229A601C4B00221A611A4B00221B
:1006D0009A61194B002283F82020174B0022DA621E
:1006E000154B174A9A62144B0022DA60124B012212
:1006F000DA61114B002283F830200F4B01225A613E
:100700000D4802F071F90346002B01D000F0EAFE1B
:1007100004233B6001237B600023BB603B461946FA
:10072000054802F0A5F90346002B01D000F0DAFEDF
:1007300000BF1037BD4680BD0C01002000210140E4
:100740000100000F80B584B000AF3B4600221A6064
:100750005A609A60DA60214B214A1A601F4B4FF4AD
:1007600080325A601D4B00229A601C4B00221A6195
:100770001A4B00229A61194B002283F82020174B54
:100780000022DA62154B174A9A62144B0022DA6093
:10079000124B0122DA61114B002283F830200F4BFB
:1007A00001225A610D4802F01FF90346002B01D0C7
:1007B00000F098FE08233B6001237B600023BB60B0
:1007C0003B461946054802F053F90346002B01D079
:1007D00000F088FE00BF1037BD4680BD54010020E8
:1007E000002201400100000F80B590B000AF78609A
:1007F00007F12C0300221A605A609A60DA601A61CD
:100800007B681B68574A93423CD1574B5B6C564AF6
:1008100043F480735364544B5B6C03F48073BB628A
:10082000BB6A514B1B6B504A43F0040313634E4B9E
:100830001B6B03F004037B627B6A4B4B1B6B4A4AC6
:1008400043F001031363484B1B6B03F001033B624E
:100850003B6A1323FB6203233B6300237B6307F1A3
:100860002C031946414802F0CBFC5023FB620323C2
:100870003B6300237B6307F12C0319463C4802F0DD
:10088000BFFC6BE07B681B683A4A93423CD1364B15
:100890005B6C354A43F400735364334B5B6C03F475
:1008A0000073FB61FB69304B1B6B2F4A43F0040361
:1008B00013632D4B1B6B03F00403BB61BB692A4B15
:1008C0001B6B294A43F001031363274B1B6B03F097
:1008D00001037B617B691323FB6203233B630023DA
:1008E0007B6307F12C031946204802F089FC502352
:1008F000FB6203233B6300237B6307F12C03194650
:100900001B4802F07DFC29E07B681B681A4A934271
:1009100024D1154B5B6C144A43F480635364124B2F
:100920005B6C03F480633B613B690F4B1B6B0E4AAE
:1009300043F0200313630C4B1B6B03F02003FB609D
:10094000FB684FF48063FB6203233B6300237B63FC
:1009500007F12C031946094802F052FC00BF40374A
:10096000BD4680BD00200140003802400008024022
:10097000000002400021014000220140001402401A
:1009800080B588B000AF3B1D00221A605A609A60A3
:10099000DA601A615A619A614F4B4FF020421A6037
:1009A0004D4B4E4A5A604C4B00229A604A4B0022F3
:1009B000DA60494B04221A61474B10225A61464BB8
:1009C00000229A61444B0022DA61434B00221A62F2
:1009D000414B4FF480525A623F4B00229A623E4B89
:1009E0000022DA623C4B00221A633B4B00225A631E
:1009F000394B00229A63384B0022DA63364B0022CF
:100A00001A640F237B600F23BB60FF23FB600F235F
:100A10003B6110237B611123BB610023FB613B1D04
:100A2000002219462C4806F0AEFC0346002B01D0EC
:100A300000F058FD2A4B4FF020421A60284B274AFD
:100A40005A60274B02229A60254B0022DA60244B21
:100A500000221A61224B10225A61214B00229A6116
:100A60001F4B0022DA611E4B00221A621C4B4FF40E
:100A700080525A621A4B00229A62194B0022DA62A3
:100A8000174B00221A63164B00225A63144B0022A4
:100A90009A63134B0022DA63114B00221A640F236E
:100AA0007B600F23BB60FF23FB600F233B611023A0
:100AB0007B611123BB610023FB613B1D00221946B2
:100AC000074806F060FC0346002B01D000F00AFD49
:100AD00000BF2037BD4680BD9C010020040100A05E
:100AE000E801002080B586B000AF3B1D00221A60EF
:100AF0005A609A60DA601A61334B1B68002B5ED132
:100B0000314B01221A60314B9B6B304A43F0010399
:100B100093632E4B9B6B03F001033B603B684FF6E6
:100B200083737B600223BB600023FB6003233B6174
:100B30000C237B613B1D1946254802F061FB4DF6F5
:100B4000B3737B600223BB600023FB6003233B6124
:100B50000C237B613B1D19461E4802F051FB80238C
:100B60007B600223BB600023FB6003233B610C23FB
:100B70007B613B1D1946184802F042FB40F23F23BF
:100B80007B600223BB600023FB6003233B610C23DB
:100B90007B613B1D1946114802F032FB4FF23F03C7
:100BA0007B600223BB600023FB6003233B610C23BB
:100BB0007B613B1D19460A4802F022FB00E000BFA2
:100BC0001837BD4680BD00BF340200200038024007
:100BD00000100240000C02400004024000180240D5
:100BE0000014024080B582B000AF7860FFF77AFF52
:100BF00000BF0837BD4680BD80B58EB000AF07F19D
:100C0000240300221A605A609A60DA601A61B54BB8
:100C10001B6BB44A43F010031363B24B1B6B03F01E
:100C200010033B623B6AAF4B1B6BAE4A43F00203BF
:100C30001363AC4B1B6B03F00203FB61FB69A94B15
:100C40001B6BA84A43F040031363A64B1B6B03F0D6
:100C50004003BB61BB69A34B1B6BA24A43F0080373
:100C60001363A04B1B6B03F008037B617B699D4BF7
:100C70001B6B9C4A43F0040313639A4B1B6B03F0FA
:100C800004033B613B69974B1B6B964A43F001039E
:100C90001363944B1B6B03F00103FB60FB68914BE8
:100CA0001B6B904A43F4807313638E4B1B6B03F4EE
:100CB0008073BB60BB688B4B1B6B8A4A43F080031D
:100CC0001363884B1B6B03F080037B607B68854B51
:100CD0001B6B844A43F020031363824B1B6B03F0AE
:100CE00020033B603B68002218217F4802F024FC6F
:100CF00000224FF4E2417D4802F01EFC0022482110
:100D00007B4802F019FC00224FF40261794802F09E
:100D100013FC002240F20C41774802F00DFC012246
:100D20004FF40041754802F007FC00224FF4906137
:100D3000734802F001FC002241F28C216F4802F05E
:100D4000FBFB002241F202016E4802F0F5FB182382
:100D50007B620123BB620023FB6200233B6307F13C
:100D600024031946604802F04BFA4FF4E2437B62D9
:100D70000123BB620023FB6200233B6307F12403D2
:100D800019465A4802F03CFA4FF400437B624FF494
:100D90008813BB620023FB6207F124031946534802
:100DA00002F02EFA48237B620123BB620023FB6220
:100DB00000233B6307F1240319464D4802F020FA53
:100DC0004FF402637B620123BB620023FB620023BA
:100DD0003B6307F124031946464802F011FA40F23A
:100DE0000C437B620123BB620023FB6200233B6355
:100DF00007F124031946404802F002FA4FF4007349
:100E00007B624FF48813BB620023FB6207F124036B
:100E10001946394802F0F4F949F28C237B62012328
:100E2000BB620023FB6200233B6307F124031946E6
:100E3000324802F0E5F94FF490637B620123BB6214
:100E40000023FB6200233B6307F1240319462C486F
:100E500002F0D6F94FF480737B624FF48813BB62C3
:100E60000023FB6207F124031946224802F0C8F967
:100E70004FF480637B620023BB620023FB6207F1B7
:100E8000240319461D4802F0BBF901237B620023AD
:100E9000BB620023FB6207F124031946184802F0E5
:100EA000AFF941F202037B620123BB620023FB62C4
:100EB00000233B6307F124031946124802F0A0F90E
:100EC0004FF430537B624FF48813BB620023FB6204
:100ED00007F1240319460B4802F092F94FF400631E
:100EE0007B6211E00038024000100240001802400E
:100EF000000C02400008024000200240001C02409A
:100F000000000240000402400023BB620023FB6299
:100F100007F124031946034802F072F900BF38377D
:100F2000BD4680BD0014024080B500AF1B4B1C4A7B
:100F30001A601A4B1B4A5A60184B00229A60174BD2
:100F40000122DA60154B00221A61144B00225A610B
:100F5000124B00229A61114B0022DA610F4B0022E2
:100F60001A620E4804F012FC0346002B01D000F078
:100F7000B9FA0021094804F0A5FC0346002B01D072
:100F800000F0B0FA0021054804F0E7FC0346002B0E
:100F900001D000F0A7FA00BF80BD00BF38020020DA
:100FA000005400400D03006080B500AF1B4B1C4A8D
:100FB0001A601A4B1B4A5A60184B00229A60174B52
:100FC0000122DA60154B00221A61144B00225A618B
:100FD000124B00229A61114B0022DA610F4B002262
:100FE0001A620E4804F0D2FB0346002B01D000F039
:100FF00079FA0021094804F065FC0346002B01D072
:1010000000F070FA0021054804F0A7FC0346002B0D
:1010100001D000F067FA00BF80BD00BF8C02002045
:10102000005800400D03006080B500AF1B4B1C4A08
:101030001A601A4B1B4A5A60184B00229A60174BD1
:101040000122DA60154B00221A61144B00225A610A
:10105000124B00229A61114B0022DA610F4B0022E1
:101060001A620E4804F092FB0346002B01D000F0F8
:1010700039FA0021094804F025FC0346002B01D071
:1010800000F030FA0021054804F067FC0346002B0D
:1010900001D000F027FA00BF80BD00BFE0020020B1
:1010A000005C00400D03006080B5AEB000AF78601A
:1010B00007F1A40300221A605A609A60DA601A618C
:1010C00007F124038022002118460FF0C9F87B683D
:1010D0001B68774A93423ED14FF480437B620023E2
:1010E000C7F8803007F12403184605F061FA03467B
:1010F000002B01D000F0F6F96E4B1B6B6D4A43F0EC
:10110000020313636B4B1B6B03F002033B623B6AEE
:101110004FF44073C7F8A4301223C7F8A830012356
:10112000C7F8AC300323C7F8B0300423C7F8B43095
:1011300007F1A4031946604802F062F85D4B1B6C8E
:101140005C4A43F4001313645A4B1B6C03F4001302
:10115000FB61FB69A7E07B681B68584A93423DD15D
:101160004FF400437B620023C7F8843007F1240367
:10117000184605F01DFA0346002B01D000F0B2F925
:101180004C4B1B6B4B4A43F080031363494B1B6B67
:1011900003F08003BB61BB693023C7F8A43012237E
:1011A000C7F8A8300123C7F8AC300323C7F8B03024
:1011B0000423C7F8B43007F1A4031946404802F0ED
:1011C0001FF83C4B1B6C3B4A43F480031364394BC0
:1011D0001B6C03F480037B617B6964E07B681B68A4
:1011E000384A93425FD14FF480337B620023C7F8C3
:1011F000883007F12403184605F0DAF90346002B7E
:1012000001D000F06FF92B4B1B6B2A4A43F001030E
:101210001363284B1B6B03F001033B613B69254BB8
:101220001B6B244A43F080031363224B1B6B03F0B8
:101230008003FB60FB684FF48073C7F8A43012236F
:10124000C7F8A8300123C7F8AC300323C7F8B03083
:101250000423C7F8B43007F1A40319461A4801F073
:10126000CFFF4FF48073C7F8A4301223C7F8A8301B
:101270000123C7F8AC300323C7F8B0300423C7F804
:10128000B43007F1A40319460D4801F0B9FF094B2A
:101290001B6C084A43F400031364064B1B6C03F4F5
:1012A0000003BB60BB6800BFB837BD4680BD00BF50
:1012B0000054004000380240000402400058004042
:1012C000001C0240005C00400000024080B586B077
:1012D00000AF01F038FB00F04BF800F0B9F8FFF771
:1012E0008BFCFFF78BF9FFF7DBF9FFF72BFAFFF722
:1012F00047FBFFF719FEFFF757FEFFF795FE00F0DB
:10130000F7F800F0D1F900F0E1FA00F01DFB00F071
:101310004BFD00F0C1FD00F019FE00F071FE00F081
:10132000BFFE01F04FF801F07DF801F0ABF801F0DD
:10133000D9F801F007F90EF04BFA0B4806F0C2F8A5
:1013400000237B610EF08AFA074B1B685B6A7B61A6
:101350003B467A69054918460EF060FF632001F0AC
:101360001FFB00BFEEE700BFA4050020180A01081C
:1013700080B594B000AF07F1200330220021184659
:101380000EF06EFF07F10C0300221A605A609A609B
:10139000DA601A6104F02EFB2B4B1B6C2A4A43F0D7
:1013A00080531364284B1B6C03F08053BB60BB68F5
:1013B000264B1B68254A43F440431360234B1B68AC
:1013C00003F440437B607B6801233B624FF480332E
:1013D0007B620223BB634FF48003FB6319233B64EE
:1013E0004FF4D8737B640223BB640923FB6407F1C9
:1013F0002003184604F020FC0346002B01D000F027
:1014000071F804F007FB0346002B01D000F06AF8E6
:101410000F23FB6002233B6100237B614FF4A05349
:10142000BB614FF48053FB6107F10C0307211846A1
:1014300004F0A6FE0346002B01D000F053F800BFD5
:101440005037BD4680BD00BF0038024000700040EC
:1014500080B5A0B000AF3B468022002118460EF0B8
:10146000FFFE4FF440133B60C0233B6102237B61CE
:101470000023BB6101233B620023BB633B4618464C
:1014800005F096F80346002B01D000F02BF800BFC2
:101490008037BD4680BD000080B582B000AF786067
:1014A0007B680C4A934209D10B48FEF7B9FE03460C
:1014B0009BB21A460849094807F078F87B681B6810
:1014C000074A934201D101F04BFA00BF0837BD46ED
:1014D00080BD00BFA405002000000020B808002047
:1014E0000000014080B400AF72B600BF00BFFDE74E
:1014F00080B500AF124B134A1A60114B01225A609B
:101500000F4B10229A600E4B1022DA600C4B1A22FD
:101510001A610B4B4FF440725A61094B00229A61D9
:10152000074B0022DA61064B00221A62044804F0DD
:10153000C1FA0346002B01D0FFF7D4FF00BF80BDE6
:1015400034030020001000A080B58CB000AF78609C
:1015500007F11C0300221A605A609A60DA601A616F
:101560007B681B684A4A934240F08E80494B9B6BD4
:10157000484A43F002039363464B9B6B03F002031C
:10158000BB61BB69434B1B6B424A43F010031363BF
:10159000404B1B6B03F010037B617B693D4B1B6B66
:1015A0003C4A43F0020313633A4B1B6B03F0020304
:1015B0003B613B69374B1B6B364A43F004031363B3
:1015C000344B1B6B03F00403FB60FB68314B1B6B5C
:1015D000304A43F0080313632E4B1B6B03F00803E0
:1015E000BB60BB680423FB6102233B6200237B6278
:1015F0000323BB620923FB6207F11C03194626483B
:1016000001F0FEFD4023FB6102233B6200237B626D
:101610000323BB620A23FB6207F11C0319461F4820
:1016200001F0EEFD4FF4C063FB6102233B62002337
:101630007B620323BB620923FB6207F11C0319468B
:10164000174801F0DDFD0423FB6102233B62002308
:101650007B620323BB620923FB6207F11C0319466B
:101660000E4801F0CDFD4FF40053FB6102233B62B5
:1016700000237B620323BB620923FB6207F11C0387
:101680001946084801F0BCFD00BF3037BD4680BD9B
:10169000001000A000380240001002400004024088
:1016A00000080240000C024080B500AF4D4B4E4A8E
:1016B0001A604C4B00221A634A4B00225A60494B75
:1016C00040225A63474B00229A63464B0022DA635A
:1016D000444B00229A60434B00221A61414B002286
:1016E0005A61404B00229A613E4B404ADA613D4BC1
:1016F0000022DA603B4B00225A623A4B00229A6287
:10170000384B0022DA62374B08221A64354B01222B
:101710005A64344B00229A64324B0022DA64314B13
:1017200000221A652F4B00225A652E4B00229A6523
:101730002C4B0122DA652B4B00221A66294805F052
:10174000C1FB0346002B01D0FFF7CCFE284B294AF2
:101750001A60274B00221A63254B03225A60244B40
:1017600040225A63224B00229A63214B0022DA6303
:101770001F4B01229A601E4B00221A611C4B002253
:101780009A611B4B0022DA60194B00225A62184BF7
:1017900000229A62164B0022DA62154B08221A6464
:1017A000134B01225A64124B00229A64104B002200
:1017B000DA640F4B00221A650D4B00225A650C4B60
:1017C00000229A650A4B0122DA65094B00221A664B
:1017D000074805F077FB0346002B01D0FFF782FE98
:1017E00000BF80BD80030020045C014000EE0200C9
:1017F00004040020245C014080B58AB000AF78600A
:101800007B681B682B4A934224D12B4B1B68002B0F
:101810000BD12A4B5B6C294A43F400035364274BDA
:101820005B6C03F400033B613B69234B1B68013392
:10183000214A1360F0237B610223BB610023FB611B
:1018400000233B620A237B6207F1140319461C48FC
:1018500001F0D6FC7B681B681A4A934225D1164BCF
:101860001B68002B0BD1154B5B6C144A43F400032F
:101870005364124B5B6C03F40003FB60FB680E4B7C
:101880001B6801330C4A13604FF480637B610223B1
:10189000BB610023FB6100233B620A237B6207F1EB
:1018A00014031946084801F0ABFC00BF2837BD46B9
:1018B00080BD00BF045C0140880400200038024065
:1018C00000200240245C01400018024080B500AFB7
:1018D0001B4B1C4A1A601A4B4FF482725A60184B09
:1018E00000229A60164B4FF44072DA60144B0022CB
:1018F0001A61134B00225A61114B4FF400729A6126
:101900000F4B0822DA610E4B00221A620C4B0022A8
:101910005A620B4B00229A62094B0722DA62084B8B
:1019200000221A63064B08225A63054805F080FC22
:101930000346002B01D0FFF7D5FD00BF80BD00BFDF
:101940008C0400200030014080B500AF1B4B1C4AC6
:101950001A601A4B4FF482725A60184B00229A6038
:10196000164B4FF44072DA60144B00221A61134B8D
:1019700000225A61114B4FF480229A610F4B0822CA
:10198000DA610E4B00221A620C4B00225A620B4B9A
:1019900000229A62094B0722DA62084B00221A637E
:1019A000064B08225A63054805F042FC0346002B0B
:1019B00001D0FFF797FD00BF80BD00BFF0040020FD
:1019C0000038004080B58EB000AF786007F1240386
:1019D00000221A605A609A60DA601A617B681B689C
:1019E0004A4A934244D14A4B5B6C494A43F4805380
:1019F0005364474B5B6C03F480533B623B6A444B3C
:101A00001B6B434A43F002031363414B1B6B03F010
:101A10000203FB61FB693E4B1B6B3D4A43F0010334
:101A200013633B4B1B6B03F00103BB61BB693023AA
:101A30007B620223BB620023FB6203233B6305231B
:101A40007B6307F124031946324801F0D9FB2023B8
:101A50007B620223BB620023FB6203233B630523FB
:101A60007B6307F1240319462B4801F0C9FB48E0CA
:101A70007B681B68294A934243D1254B1B6C244A3F
:101A800043F480431364224B1B6C03F480437B615B
:101A90007B691F4B1B6B1E4A43F4807313631C4B03
:101AA0001B6B03F480733B613B69194B1B6B184A3A
:101AB00043F004031363164B1B6B03F00403FB603A
:101AC000FB6803237B620223BB620023FB620323C8
:101AD0003B6305237B6307F124031946104801F09B
:101AE0008FFB0C237B620223BB620023FB62032378
:101AF0003B6305237B6307F124031946094801F082
:101B00007FFB00BF3837BD4680BD00BF00300140BD
:101B1000003802400004024000000240003800404B
:101B2000002002400008024080B483B000AF0F4B99
:101B30001B6C0E4A43F0805313640C4B1B6C03F078
:101B400080537B607B68094B5B6C084A43F480439D
:101B50005364064B5B6C03F480433B603B6800BFFF
:101B60000C37BD465DF8047B704700BF003802406B
:101B700080B58CB000AF78600023BB6200237B622D
:101B80002F4B5B6C2E4A43F0010353642C4B5B6C70
:101B900003F00103BB60BB6807F10C0207F11003FF
:101BA0001146184604F0D2FC04F0BCFC03465B006E
:101BB000BB62BB6A234AA2FB03239B0C013B7B62F3
:101BC000214B224A1A60204B40F2E732DA601E4A6B
:101BD0007B6A53601C4B00221A611B4B00229A60E7
:101BE000194B00229A61184805F015FC034687F846
:101BF0002F3097F82F30002B1BD1134805F062FCD3
:101C0000034687F82F3097F82F30002B11D1192079
:101C100001F056FA7B680F2B08D80022796819204A
:101C200001F032FA0A4A7B68136002E0012387F868
:101C30002F3097F82F3018463037BD4680BD00BF93
:101C40000038024083DE1B435405002000000140A1
:101C50001000002080B400AF00BFFDE780B400AFEB
:101C600000BFFDE780B400AF00BFFDE780B400AF68
:101C700000BFFDE780B400AF00BFFDE780B400AF58
:101C800000BFBD465DF8047B704780B400AF00BF65
:101C9000BD465DF8047B704780B400AF00BFBD4611
:101CA0005DF8047B704780B400AF00BFBD465DF8AF
:101CB000047B704780B500AF024805F0D2FC00BF3E
:101CC00080BD00BF5405002080B500AF024805F07C
:101CD000C8FC00BF80BD00BFA405002080B500AFD8
:101CE000024806F0C1FC00BF80BD00BFB80800205C
:101CF00080B500AF024801F0F5FE00BF80BD00BF17
:101D00002013002080B500AF024801F0EBFE00BFB9
:101D100080BD00BF0017002080B586B000AF78609E
:101D2000144A154BD31A7B617B693B61134B1B68CB
:101D3000002B02D1114B124A1A60104B1A687B68B3
:101D400013443A699A4207D20EF0A2FA03460C22D3
:101D50001A604FF0FF3309E0084B1B68FB60074B2C
:101D60001A687B681344054A1360FB6818461837E5
:101D7000BD4680BD0000042000040000A005002036
:101D8000281C002080B400AF064BD3F88830054AE9
:101D900043F47003C2F8883000BFBD465DF8047B91
:101DA000704700BF00ED00E080B58EB000AF07F1D6
:101DB000280300221A605A609A60DA6007F11C0357
:101DC00000221A605A609A603B4600221A605A60EC
:101DD0009A60DA601A615A619A612E4B4FF0804224
:101DE0001A602C4B42F62F225A602A4B00229A602E
:101DF000284B42F20F72DA60264B00221A61254B03
:101E000000229A61234805F006FB0346002B01D00F
:101E1000FFF768FB4FF48053BB6207F128031946B4
:101E20001C4805F039FE0346002B01D0FFF75AFB92
:101E3000184805F0BFFB0346002B01D0FFF752FB0B
:101E40000023FB6100237B6207F11C031946114844
:101E500006F0B2FA0346002B01D0FFF743FB6023E4
:101E60003B6000237B600023BB6000233B613B465B
:101E700004221946074805F0FBFC0346002B01D05D
:101E8000FFF730FB034800F0D1F900BF3837BD46FB
:101E900080BD00BFA405002080B58AB000AF07F167
:101EA0001C0300221A605A609A603B4600221A60A6
:101EB0005A609A60DA601A615A619A61214B224A2B
:101EC0001A60204B00225A601E4B00229A601D4B64
:101ED0004FF6FF72DA601B4B00221A61194B002289
:101EE0009A61184805F066FB0346002B01D0FFF706
:101EF000F9FA0023FB6100237B6207F11C031946FA
:101F0000104806F059FA0346002B01D0FFF7EAFA11
:101F100060233B6000237B600023BB6000233B61A8
:101F20003B4608221946074805F0A2FC0346002B51
:101F300001D0FFF7D7FA034800F078F900BF28373F
:101F4000BD4680BDF00500200004004080B58AB089
:101F500000AF07F11C0300221A605A609A603B46EA
:101F600000221A605A609A60DA601A615A619A61B6
:101F7000214B224A1A60204B00225A601E4B00223D
:101F80009A601D4B4FF0FF32DA601B4B00221A6142
:101F9000194B00229A61184805F00CFB0346002BF0
:101FA00001D0FFF79FFA0023FB6100237B6207F15A
:101FB0001C031946104806F0FFF90346002B01D018
:101FC000FFF790FA60233B6000237B600023BB6037
:101FD00000233B613B4604221946074805F048FCB4
:101FE0000346002B01D0FFF77DFA034800F01EF9ED
:101FF00000BF2837BD4680BD3C060020000C0040D5
:1020000080B588B000AF3B1D00221A605A609A600C
:10201000DA601A615A619A611F4B204A1A601E4B9E
:1020200000225A601C4B00229A601B4B4FF6FF7235
:10203000DA60194B00221A61174B00229A61164888
:1020400005F0B8FA0346002B01D0FFF74BFA6023E6
:102050007B600023BB600023FB6000237B613B1D92
:10206000002219460C4805F003FC0346002B01D062
:10207000FFF738FA3B1D04221946074805F0F8FB24
:102080000346002B01D0FFF72DFA034800F0CEF8ED
:1020900000BF2037BD4680BD8806002000400140BB
:1020A00080B588B000AF3B1D00221A605A609A606C
:1020B000DA601A615A619A611A4B1B4A1A60194B0D
:1020C00000225A60174B00229A60164B4FF6FF729F
:1020D000DA60144B00221A61124B00229A611148F7
:1020E00005F068FA0346002B01D0FFF7FBF96023E7
:1020F0007B600023BB600023FB6000237B613B1DF2
:1021000000221946074805F0B3FB0346002B01D017
:10211000FFF7E8F9034800F089F800BF2037BD4613
:1021200080BD00BFD40600200018004080B584B0F8
:1021300000AF78607B681B68B3F1804F13D10C4B04
:102140001B6C0B4A43F001031364094B1B6C03F037
:102150000103FB60FB68002200211C2000F094FFBB
:102160001C2000F0ADFF00BF1037BD4680BD00BF92
:102170000038024080B487B000AF78607B681B688D
:10218000254A93420CD1254B1B6C244A43F0020391
:102190001364224B1B6C03F002037B617B6934E008
:1021A0007B681B681E4A93420CD11C4B1B6C1B4A5C
:1021B00043F008031364194B1B6C03F008033B61E5
:1021C0003B6922E07B681B68164A93420CD1134B93
:1021D0005B6C124A43F480335364104B5B6C03F422
:1021E0008033FB60FB6810E07B681B680E4A9342FB
:1021F0000BD10A4B1B6C094A43F040031364074B95
:102200001B6C03F04003BB60BB6800BF1C37BD46BE
:102210005DF8047B704700BF0004004000380240B6
:10222000000C0040004001400018004080B58CB018
:1022300000AF786007F11C0300221A605A609A60B0
:10224000DA601A617B681B68B3F1804F1CD1544B74
:102250001B6B534A43F001031363514B1B6B03F099
:102260000103BB61BB690223FB6102233B620023C4
:102270007B620023BB620123FB6207F11C0319464A
:10228000484800F0BDFF87E07B681B68464A9342E0
:102290001CD1434B1B6B424A43F002031363404B78
:1022A0001B6B03F002037B617B690123FB6102234B
:1022B0003B6200237B620023BB620223FB6207F1C7
:1022C0001C031946394800F09BFF65E07B681B68DA
:1022D000374A93421DD1324B1B6B314A43F0800386
:1022E00013632F4B1B6B03F080033B613B694FF47F
:1022F0000063FB6102233B6200237B620023BB621D
:102300000223FB6207F11C0319462A4800F078FFFC
:1023100042E07B681B68284A93421CD1204B1B6B10
:102320001F4A43F0100313631D4B1B6B03F0100394
:10233000FB60FB686023FB6102233B6200237B623E
:102340000023BB620323FB6207F11C0319461B48F1
:1023500000F056FF20E07B681B68194A93421BD1AE
:102360000F4B1B6B0E4A43F0800313630C4B1B6B2C
:1023700003F08003BB60BB684023FB6102233B6228
:1023800000237B620023BB620923FB6207F11C036D
:102390001946084800F034FF00BF3037BD4680BD05
:1023A00000380240000002400004004000040240E7
:1023B000000C0040001C02400040014000100240A0
:1023C0000018004080B500AF144B154A1A60134B3B
:1023D0004FF4E1325A60114B00229A600F4B0022F9
:1023E000DA600E4B00221A610C4B0C225A610B4B27
:1023F00000229A61094B0022DA61084B00221A621E
:10240000064B00225A62054806F082F80346002B6C
:1024100001D0FFF767F800BF80BD00BF2007002094
:10242000004C004080B500AF144B154A1A60134BA6
:102430004FF4E1325A60114B00229A600F4B002298
:10244000DA600E4B00221A610C4B0C225A610B4BC6
:1024500000229A61094B0022DA61084B00221A62BD
:10246000064B00225A62054806F052F80346002B3C
:1024700001D0FFF737F800BF80BD00BFA8070020DC
:102480000050004080B500AF144B154A1A60134B42
:102490004FF4E1325A60114B00229A600F4B002238
:1024A000DA600E4B00221A610C4B0C225A610B4B66
:1024B0004FF440729A61094B0022DA61074B002207
:1024C0001A62064B00225A62044806F021F80346BD
:1024D000002B01D0FFF706F800BF80BD30080020B8
:1024E0000078004080B500AF144B154A1A60134BBA
:1024F0004FF4E1325A60114B00229A600F4B0022D8
:10250000DA600E4B00221A610C4B0C225A610B4B05
:1025100000229A61094B0022DA61084B00221A62FC
:10252000064B00225A62054805F0F2FF0346002BD5
:1025300001D0FEF7D7FF00BF80BD00BFB808002064
:102540000044004080B500AF144B154A1A60134B8D
:102550004FF4E1325A60114B00229A600F4B002277
:10256000DA600E4B00221A610C4B0C225A610B4BA5
:1025700000229A61094B0022DA61084B00221A629C
:10258000064B00225A62054805F0C2FF0346002BA5
:1025900001D0FEF7A7FF00BF80BD00BF40090020AB
:1025A0000014014080B5B2B000AF786007F1B40309
:1025B00000221A605A609A60DA601A6107F13403E7
:1025C0008022002118460DF04BFE7B681B68994A5B
:1025D00093423DD14FF400737B630023FB6707F107
:1025E0003403184603F0E4FF0346002B01D0FEF746
:1025F00079FF914B1B6C904A43F4002313648E4B7C
:102600001B6C03F400233B633B6B8B4B1B6B8A4AB5
:1026100043F080031363884B1B6B03F08003FB6262
:10262000FB6A4FF4C043C7F8B4300223C7F8B83090
:102630000023C7F8BC300323C7F8C0300823C7F80D
:10264000C43007F1B40319467C4800F0D9FD47E1D6
:102650007B681B687A4A93425FD14FF480637B6347
:102660000023C7F8803007F13403184603F0A0FFB9
:102670000346002B01D0FEF735FF6F4B1B6C6E4AF3
:1026800043F4801313646C4B1B6C03F48013BB6224
:10269000BB6A694B1B6B684A43F004031363664BC8
:1026A0001B6B03F004037B627B6A634B1B6B624A08
:1026B00043F008031363604B1B6B03F008033B629A
:1026C0003B6A4FF48053C7F8B4300223C7F8B830E0
:1026D0000023C7F8BC300323C7F8C0300823C7F86D
:1026E000C43007F1B4031946564800F089FD0423AD
:1026F000C7F8B4300223C7F8B8300023C7F8BC309D
:102700000323C7F8C0300823C7F8C43007F1B40367
:1027100019464D4800F074FDE2E07B681B684B4AA7
:1027200093423ED14FF480537B630023C7F8883037
:1027300007F13403184603F03BFF0346002B01D09A
:10274000FEF7D0FE3C4B1B6C3B4A43F080431364C6
:10275000394B1B6C03F08043FB61FB69364B1B6BF1
:10276000354A43F020031363334B1B6B03F0200304
:10277000BB61BB694FF47073C7F8B4300223C7F86C
:10278000B8300023C7F8BC300323C7F8C030082393
:10279000C7F8C43007F1B40319462D4800F030FDE6
:1027A0009EE07B681B682B4A934257D180237B6352
:1027B00000237B6707F13403184603F0F9FE034654
:1027C000002B01D0FEF78EFE1B4B1B6C1A4A43F404
:1027D00000331364184B1B6C03F400337B617B697B
:1027E000154B1B6B144A43F001031363124B1B6B15
:1027F00003F001033B613B690C23C7F8B4300223AB
:10280000C7F8B8300023C7F8BC300323C7F8C0307E
:102810000723C7F8C43007F1B40319460E4800F087
:10282000EFFC00220021262000F02EFC262000F0E4
:1028300047FC55E0004C004000380240001C0240BC
:102840000050004000080240000C024000780040A8
:102850000014024000440040000002407B681B68F6
:10286000214A93423CD14FF400637B630023C7F8B5
:10287000843007F13403184603F09AFE0346002B18
:1028800001D0FEF72FFE194B5B6C184A43F0200372
:102890005364164B5B6C03F02003FB60FB68134B27
:1028A0001B6B124A43F004031363104B1B6B03F0C2
:1028B0000403BB60BB68C023C7F8B4300223C7F869
:1028C000B8300023C7F8BC300323C7F8C030082352
:1028D000C7F8C43007F1B4031946054800F090FC6E
:1028E00000BFC837BD4680BD00140140003802401B
:1028F00000080240DFF834D0FFF744FA0C480D49D5
:102900000D4A002302E0D458C4500433C4188C424A
:10291000F9D30A4A0A4C002301E013600432A242B0
:10292000FBD30DF0BBFCFEF7D1FC70470000042088
:1029300000000020A80000208C0A0108A800002048
:10294000281C0020FEE780B500AF032000F091FBBB
:102950000F20FFF70DF9FFF7E7F80023184680BDB9
:1029600080B400AF064B1B781A46064B1B68134415
:10297000044A136000BFBD465DF8047B704700BF8A
:1029800014000020C809002080B400AF034B1B686E
:102990001846BD465DF8047B704700BFC80900209B
:1029A00080B584B000AF7860FFF7EEFFB8607B6859
:1029B000FB60FB68B3F1FF3F05D00A4B1B781A465A
:1029C000FB681344FB6000BFFFF7DEFF0246BB68F5
:1029D000D31AFA689A42F7D800BF00BF1037BD4635
:1029E00080BD00BF1400002080B584B000AF7860C7
:1029F0000023FB737B68002B01D1012331E07B684E
:102A00001B6C002B09D17868FDF7EEFE7B68002275
:102A10005A647B68002283F83C207B681B6C03F0BF
:102A20001003002B16D17B681A6C104B134043F037
:102A300002027B681A64786800F074F97B680022EF
:102A40005A647B681B6C23F0030343F001027B682C
:102A50001A6401E00123FB737B68002283F83C20A9
:102A6000FB7B18461037BD4680BD00BFFDEEFFFF63
:102A700080B485B000AF786039600023FB607B686C
:102A800093F83C30012B01D102233AE17B6801220B
:102A900083F83C203B681B68092B3AD93B681B68CC
:102AA000B3F1004F35D07B681B68D9683B681B6861
:102AB0009BB21A4613465B0013441E3B072202FAE0
:102AC00003F3DA437B681B680A40DA603B681B68E3
:102AD0008F4A93420AD17B681B68D9683B689B6820
:102AE0001A067B681B680A43DA6039E07B681B685A
:102AF000D9683B689A683B681B689BB218460346D6
:102B00005B0003441E3B9A407B681B680A43DA6003
:102B100026E07B681B6819693B681B689BB21A46F4
:102B200013465B00134403F01F03072202FA03F36A
:102B3000DA437B681B680A401A617B681B68196965
:102B40003B689A683B681B689BB2184603465B006B
:102B5000034403F01F039A407B681B680A431A6111
:102B60003B685B68062B24D87B681B68596B3B6805
:102B70005A6813469B001344053B1F2202FA03F3D5
:102B8000DA437B681B680A405A637B681B68596B91
:102B90003B681B689BB218463B685A6813469B000B
:102BA0001344053B00FA03F27B681B680A435A632F
:102BB0004CE03B685B680C2B24D87B681B68196B66
:102BC0003B685A6813469B001344233B1F2202FABA
:102BD00003F3DA437B681B680A401A637B681B684F
:102BE000196B3B681B689BB218463B685A681346D2
:102BF0009B001344233B00FA03F27B681B680A43E3
:102C00001A6323E07B681B68D96A3B685A681346DD
:102C10009B001344413B1F2202FA03F3DA437B6813
:102C20001B680A40DA627B681B68D96A3B681B68CC
:102C30009BB218463B685A6813469B001344413BBD
:102C400000FA03F27B681B680A43DA627B681B6840
:102C5000304A93420AD13B681B68B3F1004F05D15B
:102C60002D4B5B682C4A23F4400353607B681B6840
:102C7000284A93420FD13B681B68122B0BD1264B7D
:102C80005B68254A23F400035360234B5B68224AA8
:102C900043F4800353607B681B681E4A93422BD128
:102CA0003B681B681A4A934203D03B681B68112B90
:102CB00022D1194B5B68184A23F480035360164BEA
:102CC0005B68154A43F4000353603B681B68104A75
:102CD000934211D1114B1B68114AA2FB03239A0C9A
:102CE00013469B0013445B00FB6002E0FB68013B62
:102CF000FB60FB68002BF9D17B68002283F83C2045
:102D0000002318461437BD465DF8047B704700BFAA
:102D10001200001000200140002301400C000020A0
:102D200083DE1B4380B483B000AF7860784B5B6870
:102D3000774A23F440335360754B5A687B685B686D
:102D4000734913434B607B681B685A687B681B6838
:102D500022F480725A607B681B6859687B681B6923
:102D60001A027B681B680A435A607B681B685A68B2
:102D70007B681B6822F040725A607B681B68596848
:102D80007B689A687B681B680A435A607B681B688B
:102D90009A687B681B6822F400629A607B681B68F3
:102DA00099687B68DA687B681B680A439A607B686D
:102DB0009B6A584A934222D07B681B689A687B685A
:102DC0001B6822F070629A607B681B6899687B6858
:102DD0009A6A7B681B680A439A607B681B689A68DA
:102DE0007B681B6822F040529A607B681B68996878
:102DF0007B68DA6A7B681B680A439A600FE07B682D
:102E00001B689A687B681B6822F070629A607B6816
:102E10001B689A687B681B6822F040529A607B6846
:102E20001B689A687B681B6822F002029A607B68C4
:102E30001B6899687B689B695A007B681B680A431A
:102E40009A607B6893F82030002B1BD07B681B684E
:102E50005A687B681B6842F400625A607B681B6892
:102E60005A687B681B6822F460425A607B681B6862
:102E700059687B685B6A013B5A037B681B680A439D
:102E80005A6007E07B681B685A687B681B6822F4FD
:102E900000625A607B681B68DA6A7B681B6822F4F0
:102EA0007002DA627B681B68D96A7B68DB69013B68
:102EB0001A057B681B680A43DA627B681B689A689C
:102EC0007B681B6822F400729A607B681B689968B3
:102ED0007B6893F830305A027B681B680A439A601B
:102EE0007B681B689A687B681B6822F480629A6022
:102EF0007B681B6899687B685B699A027B681B68C2
:102F00000A439A6000BF0C37BD465DF8047B7047EA
:102F1000002301400100000F80B485B000AF78604D
:102F20007B6803F00703FB600B4BDB68BB60BA6890
:102F30004FF6FF031340BB60FB681A02BB681A43DD
:102F4000064B1343BB60044ABB68D36000BF143711
:102F5000BD465DF8047B704700ED00E00000FA0517
:102F600080B400AF044BDB681B0A03F0070318466C
:102F7000BD465DF8047B704700ED00E080B483B08F
:102F800000AF0346FB7197F90730002B0BDBFB7991
:102F900003F01F02074997F907305B09012000FA87
:102FA00002F241F8232000BF0C37BD465DF8047BD8
:102FB000704700BF00E100E080B483B000AF03467B
:102FC0003960FB7197F90730002B0ADB3B68DAB2F6
:102FD0000C4997F907301201D2B20B4483F8002351
:102FE0000AE03B68DAB20849FB7903F00F03043BBF
:102FF0001201D2B20B441A7600BF0C37BD465DF801
:10300000047B704700E100E000ED00E080B489B08F
:1030100000AFF860B9607A60FB6803F00703FB61FA
:10302000FB69C3F10703042B28BF0423BB61FB69C1
:103030000433062B02D9FB69033B00E000237B61CC
:103040004FF0FF32BB6902FA03F3DA43BB681A4060
:103050007B699A404FF0FF317B6901FA03F3D94352
:103060007B680B40134318462437BD465DF8047B4C
:10307000704780B582B000AF78607868FFF74CFF8A
:1030800000BF0837BD4680BD80B586B000AF03469F
:10309000B9607A60FB7300237B61FFF761FF7861A1
:1030A0007A68B9687869FFF7B1FF024697F90F307F
:1030B00011461846FFF780FF00BF1837BD4680BD98
:1030C00080B582B000AF0346FB7197F90730184610
:1030D000FFF754FF00BF0837BD4680BD80B584B000
:1030E00000AF78607B689B6DFB60FFF74DFCB860BC
:1030F0007B6893F83530DBB2022B08D07B688022E6
:103100005A657B68002283F83420012352E07B68F3
:103110001B681A687B681B6822F016021A607B68BD
:103120001B685A697B681B6822F080025A617B68C1
:103130001B6C002B03D17B689B6C002B07D07B683A
:103140001B681A687B681B6822F008021A607B689B
:103150001B681A687B681B6822F001021A6013E082
:10316000FFF712FC0246BB68D31A052B0CD97B680B
:1031700020225A657B68032283F835207B68002271
:1031800083F83420032315E07B681B681B6803F079
:103190000103002BE4D17B68DB6D3F229A40FB6882
:1031A0009A607B68012283F835207B68002283F8CF
:1031B0003420002318461037BD4680BD80B483B04C
:1031C00000AF78607B6893F83530DBB2022B04D017
:1031D0007B6880225A6501230CE07B68052283F816
:1031E00035207B681B681A687B681B6822F0010227
:1031F0001A60002318460C37BD465DF8047B704703
:1032000080B489B000AF786039600023FB6100238F
:103210007B6100233B610023BB610023FB6169E10B
:103220000122FB6902FA03F37B613B681B687A6940
:1032300013403B613A697B699A4240F058813B6890
:103240005B6803F00303012B05D03B685B6803F068
:103250000303022B30D17B689B68BB61FB695B0079
:10326000032202FA03F3DB43BA691340BB613B68F4
:10327000DA68FB695B0002FA03F3BA691343BB61C6
:103280007B68BA699A607B685B68BB610122FB69F5
:1032900002FA03F3DB43BA691340BB613B685B6826
:1032A0001B0903F00102FB6902FA03F3BA69134335
:1032B000BB617B68BA695A603B685B6803F00303D3
:1032C000032B17D07B68DB68BB61FB695B000322C3
:1032D00002FA03F3DB43BA691340BB613B689A68A7
:1032E000FB695B0002FA03F3BA691343BB617B68B5
:1032F000BA69DA603B685B6803F00303022B23D1F1
:10330000FB69DA087B68083253F82230BB61FB693D
:1033100003F007039B000F2202FA03F3DB43BA69B1
:103320001340BB613B681A69FB6903F007039B000C
:1033300002FA03F3BA691343BB61FB69DA087B68DD
:103340000832B96943F822107B681B68BB61FB69CE
:103350005B00032202FA03F3DB43BA691340BB614B
:103360003B685B6803F00302FB695B0002FA03F34E
:10337000BA691343BB617B68BA691A603B685B68D2
:1033800003F44033002B00F0B280604B5B6C5F4A6B
:1033900043F4804353645D4B5B6C03F48043FB60F8
:1033A000FB685B4AFB699B08023352F82330BB6120
:1033B000FB6903F003039B000F2202FA03F3DB43D4
:1033C000BA691340BB617B68524A93422BD07B6839
:1033D000514A934225D07B68504A93421FD07B6864
:1033E0004F4A934219D07B684E4A934213D07B6870
:1033F0004D4A93420DD07B684C4A934207D07B687C
:103400004B4A934201D107230EE008230CE0062328
:103410000AE0052308E0042306E0032304E0022376
:1034200002E0012300E00023FA6902F003029200A7
:103430009340BA691343BB613549FB699B0802336A
:10344000BA6941F823203B4B9B68BB613B69DB4376
:10345000BA691340BB613B685B6803F48013002BBF
:1034600003D0BA693B691343BB61324ABB699360BD
:10347000304BDB68BB613B69DB43BA691340BB611E
:103480003B685B6803F40013002B03D0BA693B6907
:103490001343BB61274ABB69D360264B5B68BB61A2
:1034A0003B69DB43BA691340BB613B685B6803F46B
:1034B0000033002B03D0BA693B691343BB611D4A3B
:1034C000BB6953601B4B1B68BB613B69DB43BA693B
:1034D0001340BB613B685B6803F48033002B03D06F
:1034E000BA693B691343BB61124ABB691360FB694C
:1034F0000133FB61FB690F2B7FF692AE00BF00BF6B
:103500002437BD465DF8047B704700BF0038024099
:103510000038014000000240000402400008024060
:10352000000C02400010024000140240001802404B
:10353000001C0240003C014080B483B000AF7860C2
:103540000B467B8013467B707B78002B03D07A88F8
:103550007B689A6103E07B881A047B689A6100BFEC
:103560000C37BD465DF8047B704780B586B002AF6E
:1035700078607B68002B01D1012359E07B681B68D0
:10358000FB607B6893F8D533DBB2002B06D17B68F8
:10359000002283F8D42378680CF0CAF97B680322F0
:1035A00083F8D523FB68B3F1A04F02D17B680022DA
:1035B0009A717B681B68184606F045FA7B681868A4
:1035C0007B681A7C8DF8002004330ECB06F090F94E
:1035D0000346002B05D07B68022283F8D523012304
:1035E00026E07B681B680121184606F03DFA034679
:1035F000002B05D07B68022283F8D523012317E036
:103600007B6818687B681A7C8DF8002004330ECB29
:1036100006F01CFC0346002B05D07B68022283F8D1
:10362000D523012304E07B68012283F8D5230023FE
:1036300018461037BD4680BD90B58BB004AF78609A
:10364000084611461A460346FB700B46BB701346EC
:103650007B703B8E7B617B6893F8D433012B01D167
:1036600002239DE07B68012283F8D423FA787968ED
:1036700013461B019B1A9B000B44193300221A703E
:10368000FA78796813461B019B1A9B000B4414338C
:103690007A781A70FA78796813461B019B1A9B0096
:1036A0000B441533FA781A70FA78796813461B01BF
:1036B0009B1A9B000B44263397F82C201A70FA783B
:1036C000BB7803F07F03D8B2796813461B019B1ABD
:1036D0009B000B44163302461A70FB781946786833
:1036E00000F0A4FB97F90230002B0ADAFA78796827
:1036F00013461B019B1A9B000B44173301221A70BF
:1037000009E0FA78796813461B019B1A9B000B4469
:10371000173300221A707B681B68184606F0EEFC0F
:10372000386197F82C30012B0BD197F82830012BFA
:1037300007D13B69002B04D17B69BC2B01D9BC2389
:103740007B61FA78796813461B019B1A9B000B4436
:10375000183397F828201A70FA787B6998B279683C
:1037600013461B019B1A9B000B44283302461A8008
:103770007B6818687B699BB27C78BA78F978029389
:1037800097F82C30019397F828300093234606F0E1
:10379000DDFC0346FB737B68002283F8D423FB7BAC
:1037A00018461C37BD4690BD80B582B000AF78602A
:1037B000084611461A460346FB700B46BB7013467B
:1037C0007B70FA78796813461B019B1A9B000B44A7
:1037D0001733BA781A70FA78796813461B019B1A66
:1037E0009B000B4426337A781A703B7C002B14D153
:1037F000FA78796813461B019B1A9B000B442A3305
:1038000003221A70FA78796813461B019B1A9B00F1
:103810000B4419333A7F1A7009E0FA787968134635
:103820001B019B1A9B000B442A3302221A707B78DF
:10383000032B00F2028101A252F823F04D38000858
:10384000253A0008113900089B3900083B7C012B00
:1038500040F0F580BB78002B2DD13B8B002B09D19C
:10386000FA78796813461B019B1A9B000B443D3381
:1038700001221A70FA78796813461B019B1A9B0083
:103880000B443D331B78002B0AD1FA787968134634
:103890001B019B1A9B000B442A3300221A70CEE0B6
:1038A000FA78796813461B019B1A9B000B442A3354
:1038B00002221A70C3E0FA78796813461B019B1A3A
:1038C0009B000B441A331B78012B40F0B880FA7828
:1038D000796813461B019B1A9B000B443C331B78F1
:1038E000002B0AD1FA78796813461B019B1A9B00BA
:1038F0000B442A3300221A70A1E0FA787968134643
:103900001B019B1A9B000B442A3302221A7096E07B
:10391000BB78002B20D1FA78796813461B019B1ADB
:103920009B000B443D331B78002B0AD1FA78796851
:1039300013461B019B1A9B000B442A3300221A706A
:103940007EE0FA78796813461B019B1A9B000B44B2
:103950002A3302221A7073E0FA78796813461B0141
:103960009B1A9B000B443C331B78002B0AD1FA783E
:10397000796813461B019B1A9B000B442A330022D3
:103980001A705DE0FA78796813461B019B1A9B0058
:103990000B442A3302221A7052E0BB78002B20D14C
:1039A000FA78796813461B019B1A9B000B443D3340
:1039B0001B78002B0AD1FA78796813461B019B1AF1
:1039C0009B000B442A3300221A7039E0FA78796898
:1039D00013461B019B1A9B000B442A3302221A70C8
:1039E0002EE0FA78796813461B019B1A9B000B4462
:1039F0003C331B78002B0AD1FA78796813461B01F7
:103A00009B1A9B000B442A3300221A7018E0FA78A4
:103A1000796813461B019B1A9B000B442A33022230
:103A20001A700DE0FA78796813461B019B1A9B0007
:103A30000B442A3300221A7002E000BF00E000BFEE
:103A4000FA78796813461B019B1A9B000B442C33B0
:103A50007A691A60FA78398B786813461B019B1AC9
:103A60009B00034434331960FA78796813461B01CC
:103A70009B1A9B000B444C3300221A70FA78796829
:103A800013461B019B1A9B000B44383300221A601B
:103A9000FA78796813461B019B1A9B000B44153377
:103AA000FA781A70FA78796813461B019B1A9B0002
:103AB0000B444D3300221A707B681868FA7813465D
:103AC0001B019B1A9B0010337A681344191D7B68F5
:103AD0009B791A4606F066FC034618460837BD4631
:103AE00080BD00BF80B586B000AF78607B681B6882
:103AF0003B613B69FB607B681B68184606F02AF94E
:103B00000346012B40F0FB807B681B68184606F0DB
:103B1000EDF80346002B00F0F1807B681B68184627
:103B200006F0E4F8034603F40013B3F5001F04D1D4
:103B30007B681B684FF400125A617B681B6818464B
:103B400006F0D4F8034603F48013B3F5801F04D1C4
:103B50007B681B684FF480125A617B681B681846AB
:103B600006F0C4F8034603F08063B3F1806F04D11C
:103B70007B681B684FF080625A617B681B6818463F
:103B800006F0B4F8034603F00203022B03D17B686E
:103B90001B6802225A617B681B68184606F0A6F86B
:103BA000034603F00053B3F1005F20D17B681B682C
:103BB0004FF000525A61FB6803F588631B6803F0FD
:103BC0000103002B13D11021386905F099FF3869E2
:103BD00005F0C8FF7B685B7A022B05D17B681B6808
:103BE0000121184606F0EAF978680BF0A7FF7B6818
:103BF0001B68184606F07AF8034603F08073B3F1A9
:103C0000807F02D1786801F04DFD7B681B68184603
:103C100006F06CF8034603F00803082B06D1786819
:103C20000BF070FF7B681B6808225A617B681B6879
:103C3000184606F05BF8034603F00073B3F1007F0B
:103C400039D17B681B68184606F026FEB860002351
:103C50007B6125E07B6903F00F03BA6822FA03F366
:103C600003F00103002B18D07B695A01FB68134451
:103C700003F5A0631B6803F40043B3F5004F06D1BE
:103C80007B69DBB21946786800F005F905E07B69CD
:103C9000DBB21946786800F067FF7B6901337B610E
:103CA0007B685B791A467B699342D3D37B681B6838
:103CB0004FF000725A617B681B68184606F016F8D0
:103CC000034603F01003102B01D1012300E0002371
:103CD000002B14D07B681B689A697B681B6822F0F4
:103CE00010029A61786801F0FEFB7B681B689A6994
:103CF0007B681B6842F010029A6100E000BF183731
:103D0000BD4680BD80B582B000AF78607B6893F817
:103D1000D433012B01D1022313E07B68012283F805
:103D2000D4237B681B680121184606F0AEF97B6836
:103D30001B68184605F076FE7B68002283F8D423C2
:103D4000002318460837BD4680BD80B582B000AF5D
:103D500078607B6893F8D433012B01D102230DE006
:103D60007B68012283F8D4237B681B68184606F021
:103D700001FF7B68002283F8D4230023184608370C
:103D8000BD4680BD80B582B000AF78607B681B689F
:103D9000184606F050F9034618460837BD4680BD60
:103DA00080B483B000AF78600B46FB70FA78796816
:103DB00013461B019B1A9B000B444C331B7818467F
:103DC0000C37BD465DF8047B704780B483B000AF0C
:103DD00078600B46FB70FA78796813461B019B1AD2
:103DE0009B000B4438331B6818460C37BD465DF802
:103DF000047B704780B582B000AF78607B681B6839
:103E0000184606F092F9034618460837BD4680BDAD
:103E100080B582B000AF78607B681B68184606F0FA
:103E20006DF9034618460837BD4680BD80B483B09F
:103E300000AF78600B46FB70FA78796813461B0177
:103E40009B1A9B000B441A3300221A70FA78796887
:103E500013461B019B1A9B000B441B3300221A7054
:103E6000FA78796813461B019B1A9B000B44253393
:103E700000221A70FA78796813461B019B1A9B007E
:103E80000B44243300221A70002318460C37BD4619
:103E90005DF8047B704780B586B000AF78600B4654
:103EA000FB707B681B687B617B693B617B681B687F
:103EB000FA781146184605F02CFF034603F0040378
:103EC000042B1AD1FB785A013B69134403F5A06314
:103ED0001A4604239360FA78796813461B019B1AEB
:103EE0009B000B444D3307221A707B681B68FA78DD
:103EF0001146184606F0E1FC9EE07B681B68FA78E4
:103F00001146184605F005FF034603F48073B3F528
:103F1000807F1BD1FB785A013B69134403F5A063F2
:103F20001A464FF480739360FA78796813461B0140
:103F30009B1A9B000B444D3308221A707B681B6848
:103F4000FA781146184606F0B8FC75E07B681B68E5
:103F5000FA781146184605F0DCFE034603F0080324
:103F6000082B1AD1FB785A013B69134403F5A0636F
:103F70001A4608239360FA78796813461B019B1A46
:103F80009B000B444D3306221A707B681B68FA783D
:103F90001146184606F091FC4EE07B681B68FA78E3
:103FA0001146184605F0B5FE034603F48063B3F5E9
:103FB000806F1BD1FB785A013B69134403F5A06362
:103FC0001A464FF480639360FA78796813461B01B0
:103FD0009B1A9B000B444D3309221A707B681B68A7
:103FE000FA781146184606F068FC25E07B681B68E5
:103FF000FA781146184605F08CFE034603F080035C
:10400000802B19D1FB785A013B69134403F5A06357
:104010001A4680239360FA78796813461B019B1A2D
:104020009B000B444D3307221A707B681B68FA789B
:104030001146184606F041FC7B681B68FA78114669
:10404000184605F066FE034603F40073B3F5007FDF
:1040500012D17B681B68FA781146184606F02DFCD1
:10406000FB785A013B69134403F5A0631A464FF4E9
:104070000073936000F075BD7B681B68FA78114689
:10408000184605F046FE034603F00103012B40F0FD
:104090002881FB785A013B69134403F5A0631A4653
:1040A00020239360FA78796813461B019B1A9B00C2
:1040B0000B441B331B78012B19D1FA78796813460E
:1040C0001B019B1A9B000B441B3300221A70FB78C8
:1040D0005A013B69134403F5A0635B68FA78510108
:1040E0003A690A4402F5A06223F4803353607B6886
:1040F0009B79002B1BD0FA78796813461B019B1A19
:104100009B000B4430331968FB785A013B69134418
:1041100003F5A0631B69C3F31203FA78C91A786820
:1041200013461B019B1A9B00034438331960FA782D
:10413000796813461B019B1A9B000B444D330122E7
:104140001A70FA78796813461B019B1A9B000B447E
:10415000443300221A60FB785A013B69134403F58B
:10416000A0631A4601239360FA78796813461B010D
:104170009B1A9B000B4426331B78002B0AD0FA783D
:10418000796813461B019B1A9B000B4426331B784E
:10419000022B10D17B681B68FA781146184606F08E
:1041A0008CFBFB785A013B69134403F5A0631A4664
:1041B000102393603DE0FA78796813461B019B1A3F
:1041C0009B000B4426331B78032B0AD0FA787968BE
:1041D00013461B019B1A9B000B4426331B78012BB3
:1041E00027D1FB785A013B69134403F5A0631B6890
:1041F000FA7851013A690A4402F5A06243F000538B
:104200001360FA78796813461B019B1A9B000B44D4
:104210004C3301221A70FA78796813461B019B1AF5
:104220009B000B444C331A78FB78194678680BF0E6
:1042300093FC7B689B79012B3BD1FA787968134614
:104240001B019B1A9B000B4438331968FA78786875
:1042500013461B019B1A9B00034428331B880B4405
:10426000591EFA78786813461B019B1A9B00034479
:1042700028331B88B1FBF3F303F00103002B00F09C
:104280007084FA78796813461B019B1A9B000B44D3
:104290003C331B78FA7883F00103D8B2796813466F
:1042A0001B019B1A9B000B443C3302461A7000F022
:1042B00058BCFA78796813461B019B1A9B000B4483
:1042C0003C331B78FA7883F00103D8B2796813463F
:1042D0001B019B1A9B000B443C3302461A7000F0F2
:1042E00040BC7B681B68FA781146184605F011FD42
:1042F000034603F02003202B31D1FB785A013B69A0
:10430000134403F5A0631A4620239360FA78796872
:1043100013461B019B1A9B000B441A331B78012B7D
:1043200040F01F84FA78796813461B019B1A9B00A2
:104330000B441B3301221A70FA78796813461B016B
:104340009B1A9B000B444D3303221A707B681B6839
:10435000FA781146184606F0B0FA00F002BC7B6805
:104360001B68FA781146184605F0D3FC034603F0A3
:104370000203022B40F00583FB785A013B6913448A
:1043800003F5A0631A4602239360FA78796813460E
:104390001B019B1A9B000B444D331B78012B14D13E
:1043A000FA78796813461B019B1A9B000B444D3326
:1043B00002221A70FA78796813461B019B1A9B0037
:1043C0000B444C3301221A70CCE2FA787968134618
:1043D0001B019B1A9B000B444D331B78062B14D1F9
:1043E000FA78796813461B019B1A9B000B444D33E6
:1043F00002221A70FA78796813461B019B1A9B00F7
:104400000B444C3305221A70ACE2FA7879681346F3
:104410001B019B1A9B000B444D331B78072B0BD0C1
:10442000FA78796813461B019B1A9B000B444D33A5
:104430001B78092B40F0A680FA78796813461B0197
:104440009B1A9B000B444D3302221A70FA7879684C
:1044500013461B019B1A9B000B4444331B68591CD9
:10446000786813461B019B1A9B0003444433196070
:10447000FA78796813461B019B1A9B000B4444335E
:104480001B68022B43D9FA78796813461B019B1AE3
:104490009B000B44443300221A60FA787968134673
:1044A0001B019B1A9B000B441A331B78012B23D151
:1044B000FA78796813461B019B1A9B000B441B3347
:1044C00000221A70FA78796813461B019B1A9B0028
:1044D0000B441C3300221A70FB785A013B691344C9
:1044E00003F5A0635B68FA7851013A690A4402F562
:1044F000A06223F480335360FA78796813461B0175
:104500009B1A9B000B444C3304221A7029E2FA7860
:10451000796813461B019B1A9B000B444C33022203
:104520001A70FA78796813461B019B1A9B000B449A
:1045300026331B78002B0BD0FA78796813461B01C1
:104540009B1A9B000B4426331B78022B40F00982F8
:10455000FB785A013B69134403F5A0631B68FB60B9
:10456000FB6823F08043FB60FB6843F00043FB6083
:10457000FB785A013B69134403F5A0631A46FB68B4
:104580001360EEE1FA78796813461B019B1A9B00D1
:104590000B444D331B78052B40F0C880FA787968BE
:1045A00013461B019B1A9B000B444D3302221A70C9
:1045B000FA78796813461B019B1A9B000B441B3346
:1045C0001B78012B40F0CE81FA78796813461B01E5
:1045D0009B1A9B000B4426331B78032B6BD1FA7874
:1045E000796813461B019B1A9B000B4448331B68D8
:1045F000591C786813461B019B1A9B0003444833DF
:104600001960FA78796813461B019B1A9B000B44CA
:1046100048331B68022B43D9FA78796813461B018B
:104620009B1A9B000B44483300221A60FA78796881
:1046300013461B019B1A9B000B441B3300221A706C
:10464000FA78796813461B019B1A9B000B4444338C
:104650001B68022B09D8FA78796813461B019B1A4C
:104660009B000B441C3301221A70FB785A013B69F2
:10467000134403F5A0635B68FA7851013A690A4470
:1046800002F5A06223F480335360FA787968134608
:104690001B019B1A9B000B444C3304221A7014E03C
:1046A000FA78796813461B019B1A9B000B444C3324
:1046B00002221A7009E0FA78796813461B019B1AE6
:1046C0009B000B444C3302221A70FA787968134627
:1046D0001B019B1A9B000B4426331B78002B0BD02D
:1046E000FA78796813461B019B1A9B000B4426330A
:1046F0001B78022B40F03681FB785A013B6913444A
:1047000003F5A0631B68FB60FB6823F08043FB603C
:10471000FB6843F00043FB60FB785A013B6913449C
:1047200003F5A0631A46FB6813601BE1FA78796809
:1047300013461B019B1A9B000B444D331B78032B24
:1047400040F08180FA78796813461B019B1A9B0020
:104750000B444D3302221A70FA78796813461B0114
:104760009B1A9B000B441B331B78012B40F0FA80F3
:10477000FA78796813461B019B1A9B000B444C3353
:1047800002221A70FB785A013B69134403F5A063B7
:104790005B68FA7851013A690A4402F5A06243F471
:1047A00080335360FB785A013B69134403F5A063DF
:1047B000DB68FA7851013A690A4402F5A06243F0D5
:1047C0004003D360FB785A013B69134403F5A063AF
:1047D000DB68FA7851013A690A4402F5A06223F0D5
:1047E0002003D360FA78796813461B019B1A9B005B
:1047F0000B4426331B78002B0BD0FA7879681346CC
:104800001B019B1A9B000B4426331B78022B40F0A4
:10481000A980FB785A013B69134403F5A0631B6828
:10482000FB60FB6823F08043FB60FB6843F00043C0
:10483000FB60FB785A013B69134403F5A0631A46F9
:10484000FB6813608EE0FA78796813461B019B1AA7
:104850009B000B444D331B78042B43D1FA787968C5
:1048600013461B019B1A9B000B444D3302221A7006
:10487000FA78796813461B019B1A9B000B444C3352
:1048800002221A70FA78796813461B019B1A9B0062
:104890000B4426331B78002B0AD0FA78796813462C
:1048A0001B019B1A9B000B4426331B78022B59D10A
:1048B000FB785A013B69134403F5A0631B68FB6056
:1048C000FB6823F08043FB60FB6843F00043FB6020
:1048D000FB785A013B69134403F5A0631A46FB6851
:1048E00013603FE0FA78796813461B019B1A9B001E
:1048F0000B444D331B78082B26D1FA787968134680
:104900001B019B1A9B000B444D3302221A70FA784C
:10491000796813461B019B1A9B000B4444331B68A8
:10492000591C786813461B019B1A9B0003444433AF
:104930001960FA78796813461B019B1A9B000B4497
:104940004C3304221A700DE0FA78796813461B0183
:104950009B1A9B000B444D331B78022B00F0008107
:1049600000E000BFFA78796813461B019B1A9B0090
:104970000B444C331A78FB78194678680BF0ECF846
:10498000EFE07B681B68FA781146184605F0C1F91C
:10499000034603F04003402B2FD1FB785A013B69BB
:1049A000134403F5A0631A4640239360FA787968AC
:1049B00013461B019B1A9B000B444D3305221A70B2
:1049C000FA78796813461B019B1A9B000B441A3333
:1049D0001B78002B09D1FA78796813461B019B1AC2
:1049E0009B000B44443300221A607B681B68FA78F2
:1049F0001146184605F061FFB3E07B681B68FA7842
:104A00001146184605F085F9034603F01003102BF4
:104A100040F0A780FA78796813461B019B1A9B0027
:104A20000B4426331B78032B1BD1FA787968134685
:104A30001B019B1A9B000B44443300221A60FA7836
:104A4000796813461B019B1A9B000B444D330422CB
:104A50001A707B681B68FA781146184605F02DFF1E
:104A60003FE0FA78796813461B019B1A9B000B44C0
:104A700026331B78002B0AD0FA78796813461B017D
:104A80009B1A9B000B4426331B78022B29D1FA7802
:104A9000796813461B019B1A9B000B444433002288
:104AA0001A607B689B79002B0AD0FA7879681346E4
:104AB0001B019B1A9B000B441B331B78012B10D14D
:104AC000FA78796813461B019B1A9B000B444D33FF
:104AD00004221A707B681B68FA781146184605F0A4
:104AE000ECFEFA78796813461B019B1A9B000B4475
:104AF0001B331B78012B29D1FA78796813461B01E7
:104B00009B1A9B000B441B3300221A70FB785A013E
:104B10003B69134403F5A0635B68FA7851013A6975
:104B20000A4402F5A06223F480335360FB785A01F3
:104B30003B69134403F5A063DB68FA7851013A69D5
:104B40000A4402F5A06243F02003D360FB785A01C7
:104B50003B69134403F5A0631A461023936000E0F9
:104B600000BF1837BD4680BD80B586B000AF786005
:104B70000B46FB707B681B687B617B693B617B68D4
:104B80001B68FA781146184605F0C3F8034603F08F
:104B90000403042B1BD1FB785A013B69134403F532
:104BA000A0631A4604239360FA78796813461B01C0
:104BB0009B1A9B000B444D3307221A707B681B68BD
:104BC000FA781146184605F078FE00F089BC7B683B
:104BD0001B68FA781146184605F09BF8034603F067
:104BE0002003202B40F08280FB785A013B6913445C
:104BF00003F5A0631A4620239360FA787968134678
:104C00001B019B1A9B000B4419331B78012B24D1E9
:104C1000FA78796813461B019B1A9B000B441933E1
:104C200000221A70FA78796813461B019B1A9B00C0
:104C30000B444C3302221A70FA78796813461B0130
:104C40009B1A9B000B444D3303221A707B681B6830
:104C5000FA781146184605F030FEFA78796813465E
:104C60001B019B1A9B000B441A331B78012B40F04D
:104C70003784FA78796813461B019B1A9B000B4412
:104C80001B331B78002B40F02B84FA78796813468D
:104C90001B019B1A9B000B4426331B78012B09D068
:104CA000FA78796813461B019B1A9B000B441B334F
:104CB00001221A70FA78796813461B019B1A9B002F
:104CC0000B444D3303221A707B681B68FA78114637
:104CD000184605F0F2FDFA78796813461B019B1A15
:104CE0009B000B44443300221A60F9E37B681B6885
:104CF000FA781146184605F00CF8034603F40073E1
:104D0000B3F5007F11D1FB785A013B69134403F5D9
:104D1000A0631A464FF4007393607B681B68FA78AF
:104D20001146184605F0C9FDDAE37B681B68FA787E
:104D30001146184604F0EDFF034603F00103012B72
:104D400068D1FA78796813461B019B1A9B000B44C3
:104D5000443300221A607B681B68FA7811461846B3
:104D600004F0D7FF034603F04003402B12D1FA783A
:104D7000796813461B019B1A9B000B4419330122CF
:104D80001A70FB785A013B69134403F5A0631A4675
:104D900040239360FA78796813461B019B1A9B00A5
:104DA0000B441B331B78002B19D0FA787968134613
:104DB0001B019B1A9B000B441B3300221A70FB78CB
:104DC0005A013B69134403F5A0635B68FA7851010B
:104DD0003A690A4402F5A06223F480335360FB78F9
:104DE0005A013B69134403F5A0631A4601239360FB
:104DF000FA78796813461B019B1A9B000B444D33CC
:104E000001221A707B681B68FA781146184605F073
:104E100054FD65E37B681B68FA781146184604F078
:104E200078FF034603F04003402B39D1FA787968C4
:104E300013461B019B1A9B000B444D3305221A702D
:104E4000FA78796813461B019B1A9B000B441A33AE
:104E50001B78002B09D1FA78796813461B019B1A3D
:104E60009B000B44193301221A70FA7879681346B3
:104E70001B019B1A9B000B44443300221A607B6881
:104E80001B68FA781146184605F017FDFB785A01A1
:104E90003B69134403F5A0631A46402393601FE364
:104EA0007B681B68FA781146184604F032FF034607
:104EB00003F00803082B1AD1FB785A013B6913440D
:104EC00003F5A0631A4608239360FA7879681346BD
:104ED0001B019B1A9B000B444D3306221A707B6802
:104EE0001B68FA781146184605F0E7FCF8E27B6883
:104EF0001B68FA781146184604F00BFF034603F0CE
:104F00001003102B44D1FA78796813461B019B1AC1
:104F10009B000B44443300221A60FA7879681346E8
:104F20001B019B1A9B000B444D3304221A70FA7824
:104F3000796813461B019B1A9B000B4419331B789D
:104F4000002B14D1FA78796813461B019B1A9B0039
:104F50000B4418331B78002B09D1FA787968134673
:104F60001B019B1A9B000B44193301221A707B68AA
:104F70001B68FA781146184605F09FFCFB785A0129
:104F80003B69134403F5A0631A4610239360A7E21C
:104F90007B681B68FA781146184604F0BAFE03468F
:104FA00003F08003802B40F083807B689B79002B8B
:104FB00011D1FA78796813461B019B1A9B000B44A8
:104FC0004D3307221A707B681B68FA781146184621
:104FD00005F073FC62E0FA78796813461B019B1AAE
:104FE0009B000B4444331B68591C786813461B0113
:104FF0009B1A9B00034444331960FA78796813467E
:105000001B019B1A9B000B4444331B68022B22D9C3
:10501000FA78796813461B019B1A9B000B444433B2
:1050200000221A60FA78796813461B019B1A9B00CC
:105030000B444C3304221A70FA78796813461B012A
:105040009B1A9B000B444C331A78FB7819467868FE
:105050000AF082FD22E0FA78796813461B019B1A58
:105060009B000B444C3302221A70FB785A013B69B7
:10507000134403F5A0631B68FB60FB6823F08043C7
:10508000FB60FB6843F00043FB60FB785A013B691F
:10509000134403F5A0631A46FB681360FB785A01BA
:1050A0003B69134403F5A0631A468023936017E21B
:1050B0007B681B68FA781146184604F02AFE0346FE
:1050C00003F48063B3F5806F1BD1FA7879681346D7
:1050D0001B019B1A9B000B444D3309221A707B68FD
:1050E0001B68FA781146184605F0E7FBFB785A0171
:1050F0003B69134403F5A0631A464FF48063936041
:10510000EEE17B681B68FA781146184604F001FE50
:10511000034603F00203022B40F0DF81FB785A01C3
:105120003B69134403F5A0631A4602239360FA789F
:10513000796813461B019B1A9B000B444D331B7867
:10514000012B40F09380FA78796813461B019B1A73
:105150009B000B444D3302221A70FA78796813468B
:105160001B019B1A9B000B444C3301221A70FA78E6
:10517000796813461B019B1A9B000B4426331B784E
:10518000022B0BD0FA78796813461B019B1A9B00FF
:105190000B4426331B78032B40F090817B689B796E
:1051A000002B15D1FA78796813461B019B1A9B00D6
:1051B0000B443D331B78FA7883F00103D8B2796849
:1051C00013461B019B1A9B000B443D3302461A7089
:1051D0007B689B79012B40F07181FA7879681346DE
:1051E0001B019B1A9B000B4434331B68002B00F0FF
:1051F0006581FA78796813461B019B1A9B000B4462
:1052000034331968FA78786813461B019B1A9B009F
:10521000034428331B880B44591EFA7878681346D8
:105220001B019B1A9B00034428331B88B1FBF3F33B
:10523000BB60BB6803F00103002B00F03F81FA78EC
:10524000796813461B019B1A9B000B443D331B7866
:10525000FA7883F00103D8B2796813461B019B1AD0
:105260009B000B443D3302461A7027E1FA787968B7
:1052700013461B019B1A9B000B444D331B78032BD9
:1052800020D1FA78796813461B019B1A9B000B44C6
:105290004D3302221A70FA78796813461B019B1A63
:1052A0009B000B441B331B78012B40F00781FA78DD
:1052B000796813461B019B1A9B000B444C33022256
:1052C0001A70FBE0FA78796813461B019B1A9B0061
:1052D0000B444D331B78042B3AD1FA787968134686
:1052E0001B019B1A9B000B444D3302221A70FA7863
:1052F000796813461B019B1A9B000B444C33022216
:105300001A70FA78796813461B019B1A9B000B44AC
:105310001B331B78012B40F0D180FA787968134653
:105320001B019B1A9B000B441B3300221A70FB7855
:105330005A013B69134403F5A0635B68FA78510195
:105340003A690A4402F5A06223F480335360B5E061
:10535000FA78796813461B019B1A9B000B444D3366
:105360001B78052B14D1FA78796813461B019B1A18
:105370009B000B444D3302221A70FA787968134669
:105380001B019B1A9B000B444C3302221A7095E0C0
:10539000FA78796813461B019B1A9B000B444D3326
:1053A0001B78062B14D1FA78796813461B019B1AD7
:1053B0009B000B444D3302221A70FA787968134629
:1053C0001B019B1A9B000B444C3305221A7075E09D
:1053D000FA78796813461B019B1A9B000B444D33E6
:1053E0001B78072B0AD0FA78796813461B019B1AA1
:1053F0009B000B444D331B78092B70D1FA787968E8
:1054000013461B019B1A9B000B444D3302221A705A
:10541000FA78796813461B019B1A9B000B444433AE
:105420001B68591C786813461B019B1A9B00034498
:1054300044331960FA78796813461B019B1A9B0064
:105440000B4444331B68022B14D9FA78796813464D
:105450001B019B1A9B000B44443300221A60FA780C
:10546000796813461B019B1A9B000B444C330422A2
:105470001A7022E0FA78796813461B019B1A9B0088
:105480000B444C3302221A70FB785A013B691344D7
:1054900003F5A0631B68FB60FB6823F08043FB609F
:1054A000FB6843F00043FB60FB785A013B691344FF
:1054B00003F5A0631A46FB68136000BFFA787968A9
:1054C00013461B019B1A9B000B444C331A78FB7844
:1054D000194678680AF040FB02E000BF00E000BF18
:1054E0001837BD4680BD80B58AB000AF78607B6854
:1054F0001B687B627B6A3B627B681B681B6AFB6183
:10550000FB6903F00F03BB61FB695B0C03F00F0346
:105510007B61FB691B09C3F30A033B617B69022BB7
:1055200004D07B69052B00F0B680B7E03B69002B07
:1055300000F0B3807968BA6913461B019B1A9B007F
:105540000B442C331B68002B00F0A7807968BA69E4
:1055500013461B019B1A9B000B4438331A683B69A6
:10556000D1187868BA6913461B019B1A9B00034443
:1055700034331B68994200F283807B68186879682D
:10558000BA6913461B019B1A9B000B442C331B6802
:105590003A6992B2194604F051FB7968BA69134628
:1055A0001B019B1A9B000B442C331A683B69D118D2
:1055B0007868BA6913461B019B1A9B0003442C337D
:1055C00019607968BA6913461B019B1A9B000B444A
:1055D00038331A683B69D1187868BA6913461B01D9
:1055E0009B1A9B00034438331960BB695A013B6A1C
:1055F000134403F5A0631B69DB0CC3F30903FB60D1
:105600007968BA6913461B019B1A9B000B44283327
:105610001B881A463B6993423FD1FB68002B3CD064
:10562000BB695A013B6A134403F5A0631B68BB6066
:10563000BB6823F08043BB60BB6843F00043BB60A2
:10564000BB695A013B6A134403F5A0631A46BB6861
:1056500013607968BA6913461B019B1A9B000B44BF
:105660003C331B7883F00103D8B27968BA691346DA
:105670001B019B1A9B000B443C3302461A700CE042
:105680007968BA6913461B019B1A9B000B444C3383
:1056900004221A7001E000BF00E000BF00BF2837FD
:1056A000BD4680BD80B586B000AF78607B681B6862
:1056B0007B617B693B613B6903F588631B68FB6029
:1056C0003B6903F588631B68BB60BB6823F02E034E
:1056D000BB60FB6803F00203022B0BD1FB6803F0F5
:1056E0000103012B02D178680AF01AFABB6843F073
:1056F0000203BB60FB6803F00803082B32D1BB68D0
:1057000043F00803BB60FB6803F00403042B26D1BD
:105710007B685B7A022B13D1FB6803F4C023B3F5DB
:10572000802F06D17B681B680221184604F046FCD6
:1057300011E07B681B680121184604F03FFC0AE079
:105740007B68DB79012B06D13B6903F580631A4640
:105750004EF66023536078680AF00CFA02E078682D
:105760000AF016FAFB6803F02003202B03D1BB6874
:1057700043F02003BB603B6903F588631A46BB68AE
:10578000136000BF1837BD4680BD000080B582B0F1
:1057900000AF78607B68002B01D101238BE07B6830
:1057A00093F84130DBB2002B06D17B68002283F8EE
:1057B00040207868FBF778FC7B68242283F841203E
:1057C0007B681B681A687B681B6822F001021A60FC
:1057D0007B685A687B681B6822F070621A617B687C
:1057E0001B689A687B681B6822F400429A607B6899
:1057F000DB68012B07D17B689A687B681B6842F4E1
:1058000000429A6006E07B689A687B681B6842F4F5
:1058100004429A607B68DB68022B08D17B681B68B6
:105820005A687B681B6842F400625A6007E07B6834
:105830001B685A687B681B6822F400625A607B68A8
:105840001B6859687B681A681D4B0B4353607B6863
:105850001B68DA687B681B6822F40042DA607B68A8
:105860001A697B685B6942EA03017B689B691A02DB
:105870007B681B680A43DA607B68D9697B681A6AAF
:105880007B681B680A431A607B681B681A687B6820
:105890001B6842F001021A607B6800225A647B6830
:1058A000202283F841207B6800221A637B68002253
:1058B00083F84220002318460837BD4680BD00BF4C
:1058C0000080000280B483B000AF786039607B68EC
:1058D00093F84130DBB2202B38D17B6893F840300D
:1058E000012B01D1022332E07B68012283F84020A2
:1058F0007B68242283F841207B681B681A687B68D8
:105900001B6822F001021A607B681B681A687B68BA
:105910001B6822F480521A607B681B6819687B68D8
:105920001B683A680A431A607B681B681A687B68C0
:105930001B6842F001021A607B68202283F8412034
:105940007B68002283F84020002300E002231846F1
:105950000C37BD465DF8047B704780B485B000AF5E
:10596000786039607B6893F84130DBB2202B39D105
:105970007B6893F84030012B01D1022333E07B6830
:10598000012283F840207B68242283F841207B6831
:105990001B681A687B681B6822F001021A607B682A
:1059A0001B681B68FB60FB6823F47063FB603B684B
:1059B0001B02FA681343FB607B681B68FA681A6075
:1059C0007B681B681A687B681B6842F001021A60DA
:1059D0007B68202283F841207B68002283F84020E6
:1059E000002300E0022318461437BD465DF8047B0F
:1059F0007047000080B400AF054B1B68044A43F4B5
:105A00008073136000BFBD465DF8047B704700BF24
:105A10000070004080B582B000AF00237B60234B54
:105A20001B6C224A43F080531364204B1B6C03F021
:105A300080533B603B681E4B1B681D4A43F4803318
:105A40001360FCF7A1FF786009E0FCF79DFF0246B8
:105A50007B68D31AB3F57A7F01D9032322E0144B74
:105A60005B6803F48033B3F5803FEED1104B1B68C5
:105A70000F4A43F400331360FCF786FF786009E0B7
:105A8000FCF782FF02467B68D31AB3F57A7F01D90F
:105A9000032307E0064B5B6803F40033B3F5003FD4
:105AA000EED1002318460837BD4680BD00380240BD
:105AB0000070004080B586B002AF7860FCF764FFEC
:105AC000F8607B68002B01D1012367E07B6893F8C5
:105AD0004130DBB2002B0BD17B68002283F84020E1
